S00D000061746D31362E737265636E
S11300000C942A000C9434000C9434000C943400A6
S11300100C9434000C9434000C9434000C9434008C
S11300200C9434000C9434000C9434000C9434007C
S11300300C9434000C9434000C9434000C9434006C
S11300400C9434000C9434000C9434000C9434005C
S11300500C94340011241FBECFE5D4E0DEBFCDBF25
S11300600E9436000C9457000C94000014BA9FEFC1
S11300709BBB2FE936E841E0215030404040E1F796
S113008000C0000083B32FE73AE146E0215030403E
S11300904040E1F700C000008BBB8FE724E83EE15D
S11300A0815020403040E1F700C00000E1CFF894D7
S10500B0FFCF7C
S9030000FC
